:100000000C94840C0C94AC0C0C94AC0C0C94C2208E
:100010000C94AC0C0C94AC0C0C94AC0C0C94AC0C80
:100020000C94AC0C0C94AC0C0C94AC0C0C94AC0C70
:100030000C94AC0C0C94AC0C0C94AC0C0C94AC0C60
:100040000C9478200C94AC0C0C94AC0C0C94AC0C70
:100050000C94AC0C0C9499210C94AC0C0C94AC0C3E
:100060000C94AC0C0C94AC0C4465616374697661BF
:100070007465640053656C65637420546970004551
:100080006E74657220546970204E616D6500FFE0EA
:10009000FFD1AFFF32FFD0FFFEFFE0FFD1AEFFD0B8
:1000A000FFFEFFE0FFD11000FFFEFFD0FFE0FFC129
:1000B000FFD1AED580A83FD300408D142000A1C849
:1000C000DA1281CFD9F1DB402EA4A6AFFFD0FFFE1C
:1000D00000000000240027002A0000000000250086
:1000E00028002B0000000000230026002900040443
:1000F00004040404040402020202020203030303D0
:1001000003030102040810204080010204081020AB
:10011000010204081020506C6561736520776169E5
:10012000742E2E2E004144433A20200074656D70D9
:100130003A2000536574206D6561737572656400C3
:10014000537465703A200043616C6962726174692E
:100150006F6E002056005663633A20200020560040
:1001600056696E3A2000204300546D703A200046D4
:1001700069726D776172653A20003030300030303E
:100180003000560020484F4C440020484541540060
:1001900020574F524B00424F4F535400534C45454C
:1001A000500020204F4646004552524F520000005A
:1001B0000008000201000003040700000000000026
:1001C000000000574DFBF12A000000002A3A002BE6
:1001D000F82A001717452507140082000383800FB3
:1001E00083E01FC7E00FC7E007C7C003EF8001EF40
:1001F0000000FE00F8FE3EFFFFFEFFFFFEFFFFFED9
:10020000FE7CFE80FE0201EF0003EF8007EFC007D7
:10021000C7C00FC7E01F83F00783C00183002323FB
:10022000AF3B0C000001E000000001E00000000115
:10023000E000000001E000000001E000000001E03B
:1002400000000001E000000001E000000001E0000B
:10025000000001E000000001E000000001E00000FB
:100260000001E000000001E000000001E0000000EB
:1002700001E00000FFFFFFFFE0FFFFFFFFE0FFFFE7
:10028000FFFFE0FFFFFFFFE00001E000000001E0F2
:1002900000000001E000000001E000000001E000BB
:1002A000000001E000000001E000000001E00000AB
:1002B0000001E000000001E000000001E00000009B
:1002C00001E000000001E000000001E0000000018A
:1002D000E000000C0F1E1203F80FF00FF00FE01FEC
:1002E000E01FC01FC03F803F803F007F007E007E38
:1002F000007C00FC00FC000F081013020BFFFEFF47
:10030000FEFFFEFFFEFFFEFFFEFFFEFFFE080808E9
:10031000120600FFFFFFFFFFFFFFFF132E8A1903E6
:10032000FD0007E00007E00007C0000FC0000FC09D
:10033000000F80001F80001F80001F80001F000032
:100340003F00003F00003E00007E00007E00007C79
:100350000000FC0000FC0000FC0000F80001F800B8
:1003600001F80001F00003F00003F00003F00007C3
:10037000E00007E00007E00007C0000FC0000FC06A
:10038000000F80001F80001F80001F80003F0000C2
:100390003F00003F00003E00007E00007E00007C29
:1003A0000000FC0000FC0000FC00001D2CB021023D
:1003B000FF001FC00000FFF80003FFFC0007FFFF65
:1003C000000FFFFF800FFFFF801FF0FFC03FC03F07
:1003D000C03FC03FE03F801FE07F801FF07F001FD5
:1003E000F07F000FF07F000FF0FF000FF0FF000F15
:1003F000F8FF000FF8FF000FF8FF000FF8FF000FE5
:10040000F8FF000FF8FF000FF8FF000FF8FF000FD4
:10041000F8FF000FF8FF000FF8FF000FF8FF000FC4
:10042000F8FF000FF87F000FF07F000FF07F000F44
:10043000F07F001FF07F801FF03F801FE03FC03F34
:10044000E03FC03FC01FF0FFC00FFFFF800FFFFF66
:100450000007FFFF0003FFFE0000FFF800001FC0C1
:1004600000122A7E210600003FC0007FC000FFC0AE
:1004700003FFC00FFFC03FFFC0FFFFC0FFFFC0FF73
:10048000FFC0FF3FC0FE3FC0F83FC0E03FC0003F9D
:10049000C0003FC0003FC0003FC0003FC0003FC0A1
:1004A000003FC0003FC0003FC0003FC0003FC00051
:1004B0003FC0003FC0003FC0003FC0003FC0003F02
:1004C000C0003FC0003FC0003FC0003FC0003FC071
:1004D000003FC0003FC0003FC0003FC0003FC00021
:1004E0003FC0003FC01D2BAC210200000FF00000F8
:1004F0007FFE0001FFFF0003FFFF8007FFFFC00F2B
:10050000FFFFE01FF83FF01FF01FF01FE00FF03F6C
:10051000C007F83FC007F83FC007F8000007F80021
:100520000007F800000FF800000FF000001FF000B7
:10053000001FF000003FE000007FE00000FFC0006F
:1005400001FF800003FF800007FF00000FFE000096
:100550001FFC00003FF800007FF00000FFE00001FA
:10056000FF800003FF00000FFE00001FFC00003FA3
:10057000F000007FE00000FFC00000FFFFFFF8FF79
:10058000FFFFF8FFFFFFF8FFFFFFF8FFFFFFF8FF97
:10059000FFFFF8FFFFFFF81C2CB02103FF007FC016
:1005A0000003FFF80007FFFC001FFFFF003FFFFFF5
:1005B000003FFFFF807FE0FFC07FC07FC0FF803F24
:1005C000C0FF001FE0FF001FE0FF001FE000001F52
:1005D000E000001FE000001FE000003FC000007FBF
:1005E000C00003FF80007FFF00007FFC00007FF061
:1005F00000007FF800007FFE00007FFF800000FF0A
:10060000C000003FE000001FE000001FE000000FFE
:10061000F000000FF000000FF0FF000FF0FF000FE0
:10062000F0FF000FF0FF001FE0FF801FE07FC03FE2
:10063000E07FE0FFC03FFFFF803FFFFF001FFFFEA6
:10064000000FFFFC0003FFF800007FC0001F2AA876
:100650002101000001FFC00001FFC00003FFC00036
:1006600007FFC00007FFC0000FFFC0000FFFC00062
:100670001FFFC0003FFFC0003FBFC0007F3FC00062
:10068000FF3FC000FE3FC001FE3FC001FC3FC00372
:10069000F83FC007F83FC007F03FC00FF03FC01F52
:1006A000E03FC01FC03FC03FC03FC03F803FC07F52
:1006B000803FC0FF003FC0FF003FC0FFFFFFFEFFC5
:1006C000FFFFFEFFFFFFFEFFFFFFFEFFFFFFFEFF3E
:1006D000FFFFFEFFFFFFFE00003FC000003FC00025
:1006E000003FC000003FC000003FC000003FC0000E
:1006F000003FC000003FC000003FC01D2BAC2102E6
:10070000FF7FFFFFE07FFFFFE07FFFFFE07FFFFF56
:10071000E07FFFFFE07FFFFFE07FFFFFE07F8000E3
:10072000007F8000007F8000007F8000007F8000CD
:10073000007F8000007F8000007F8000007F87F8BE
:10074000007F9FFE007FFFFF807FFFFFC07FFFFFD6
:10075000C07FFFFFE07FF03FF07FC01FF07F800F82
:10076000F07F800FF87F0007F8000007F80000070F
:10077000F8000007F8000007F8000007F80000077D
:10078000F0FF000FF0FF000FF0FF001FF0FF803FB1
:10079000E07FE0FFC07FFFFFC03FFFFF801FFFFF44
:1007A000000FFFFC0003FFF800007FC0001D2CB00D
:1007B0002102FF000FF000007FFC0000FFFF00039C
:1007C000FFFF8007FFFFC007FFFFE00FFC3FE01FB8
:1007D000F00FF01FE00FF03FC007F83FC007F83FF1
:1007E0008000007F8000007F8000007F8000007F0D
:1007F000000000FF03F800FF1FFE00FF3FFF00FFA7
:100800007FFF80FFFFFFC0FFFFFFE0FFF83FF0FF2B
:10081000E01FF0FFC00FF0FFC00FF8FF8007F8FFE8
:100820008007F8FF8007F8FF8007F8FF8007F87F50
:100830008007F87F8007F87F8007F07FC00FF03FC8
:10084000C00FF03FE01FE01FF83FE01FFFFFC00FA9
:10085000FFFF8007FFFF0003FFFE0000FFF800001E
:100860003FC0001C2AA8210300FFFFFFF0FFFFFF8D
:10087000F0FFFFFFF0FFFFFFF0FFFFFFF0FFFFFFC4
:10088000F0FFFFFFF000000FF000000FF000001F6E
:10089000F000001FE000003FE000003FC000007FCC
:1008A000C000007FC00000FF800000FF800001FF4B
:1008B000000001FF000001FE000003FE000003FE37
:1008C000000007FC000007FC00000FF800000FF814
:1008D00000001FF800001FF000001FF000003FE0C4
:1008E00000003FE000007FC000007FC00000FFC0AC
:1008F0000000FF800001FF800001FF000003FF00F7
:100900000003FF000003FE000007FE000007FC00DC
:10091000001D2CB02102FF003FF00001FFFE000788
:10092000FFFF800FFFFFC01FFFFFE03FFFFFF03F13
:10093000F87FF07FE01FF07FE01FF87FC00FF87FA7
:10094000C00FF87FC00FF87FC00FF87FC00FF83FCF
:10095000E01FF03FE01FF01FF87FE00FFFFFC00730
:10096000FFFF0001FFFC0000FFF80003FFFE000F87
:10097000FFFF801FFFFFC03FF03FE07FE01FE07FF1
:10098000C00FF07FC00FF0FF8007F8FF8007F8FF6F
:100990008007F8FF8007F8FF8007F8FF8007F8FF5F
:1009A000C00FF8FFC00FF87FE01FF07FF03FF07F2F
:1009B000FFFFE03FFFFFE01FFFFFC00FFFFF8003CF
:1009C000FFFE00007FF0001D2CB02102FF001FC0C1
:1009D0000000FFF80003FFFE0007FFFF000FFFFF0E
:1009E000801FFFFF803FE0FFC03FC03FE07F801FD0
:1009F000E07F801FE07F000FF0FF000FF0FF000F8F
:100A0000F0FF000FF0FF000FF8FF000FF8FF000FDE
:100A1000F8FF000FF8FF801FF87F801FF87FC03FAE
:100A2000F87FE0FFF83FFFFFF81FFFFFF81FFFF719
:100A3000F80FFFE7F803FFC7F800FE07F000000714
:100A4000F000000FF000000FF000000FF000000FAA
:100A5000E07F801FE07F801FE03F803FC03FC07F7E
:100A6000C03FE0FF801FFFFF800FFFFF0007FFFE7A
:100A70000003FFFC0001FFF000003FC000081D1D47
:100A8000130800FFFFFFFFFFFFFFFF000000000053
:100A90000000000000000000FFFFFFFFFFFFFFFF5E
:100AA000002730FBF518000000002A3A001AFB1856
:100AB000000A0B160D010F0C000C004C80EDC07FDE
:100AC000803F001E003F007380E1C0408011103065
:100AD00013010101C00001C00001C00001C00001FC
:100AE000C00001C00001C000FFFF80FFFF80FFFFCA
:100AF0008001C00001C00001C00001C00001C000B1
:100B000001C0000309090903FBE0E0E0E0206060A8
:100B1000C0800802020B0108FFFF03040409030060
:100B2000E0E0E0E009183009000001800180018068
:100B30000300030003000600060006000C000C0082
:100B40000C000800180018001800300030003000B9
:100B5000600060006000C000C0000F18301201008B
:100B600007C01FF03FF83C78783C701C701CE00E0A
:100B7000E00EE00EE00EE00EE00EE00EE00EE00E05
:100B8000E00E701C701C703C3C783FF81FF007C0F2
:100B90000818181203000307070F3FFFFF07070796
:100BA00007070707070707070707070707070F18BC
:100BB0003012010007C01FF03FF8783C701CF00EA7
:100BC000E00EE00E000E001C003C007800F003E098
:100BD00007C01F003C0078007000E000E000FFFE4E
:100BE000FFFEFFFE0F183012010007C01FF03FF894
:100BF0003838701C701C701C701C001C003803F806
:100C000003F003F8003C001E000EE00EE00EE00EC4
:100C1000701C783C3FF81FF007C01018301200001D
:100C2000001800380078007800F801F803B803B81D
:100C300007380E380E381C38383838387038E038F5
:100C4000FFFFFFFFFFFF0038003800380038003892
:100C50000F18301201003FFC3FFC3FFC3800380009
:100C600038007000700077C07FF07FF8787C701CCF
:100C7000001E000E000E000EE00EE01EF01C787C40
:100C80007FF83FF00F800F183012010003C00FF003
:100C90001FF83C38381C701C700070006000E3C006
:100CA000EFF0FFF8F83CF01CF00EE00EE00E600EE6
:100CB000700E701C383C3FF81FF007C00F18301240
:100CC0000100FFFEFFFEFFFE000E001C00180038B2
:100CD0000070007000E000E001C001C003800380EC
:100CE0000700070007000E000E000E001C001C008D
:100CF0001C000F183012010007C01FF03FF8383CED
:100D0000701C701C701C701C783C3C781FF00FE04D
:100D10003FF8783C701CE00EE00EE00EE00EF01C98
:100D2000783C3FF81FF007C00F183012010007C0D1
:100D30001FF03FF8787C703CF01CE01EE00EE00EE7
:100D4000E00EE01EE01E703E7FFE3FEE0FCE000E76
:100D5000001CE01CF03C78783FF03FE00F8003126D
:100D600012090400E0E0E0E00000000000000000E4
:100D70000000E0E0E0E000090F00FD0A01E803D810
:100D800020FFFD0CFD0BFD00000009000C010B0B0A
:100D900009040080808080808080000080800403BF
:100DA000030903079090900608080901014848FCD0
:100DB0004848FC4848070B0B0901FF107C929050F3
:100DC000381412927C10070A0A09010042A4A448B0
:100DD0001010244A4A84070A0A0901006090909082
:100DE0006062948894620103030904078080800391
:100DF0000C0C0903FF2040408080808080804040B0
:100E000020030C0C0903FF804040202020202020DC
:100E1000404080070707090103109254385492108C
:100E2000070707090101101010FE10101002050538
:100E30000904FDC0C0404080070101090104FE0211
:100E40000202090400C0C0070A0A090100020404E2
:100E500008101020404080070A0A09010038448227
:100E600082828282824438070A0A090100103050C7
:100E7000901010101010FE070A0A0901007C8282EF
:100E8000040810204080FE070A0A090100FE02043F
:100E9000081C020202827C070A0A090100040C14E1
:100EA000244484FE040404070A0A090100FE808029
:100EB000BCC2020202827C070A0A0901003C40808F
:100EC00080BCC28282827C070A0A090100FE0204F9
:100ED00004080810102020070A0A0901003844827B
:100EE00044384482824438070A0A0901007C82821D
:100EF00082867A02020478020707090400C0C00053
:100F00000000C0C0020A0A0904FDC0C0000000C001
:100F1000C0404080050A0A09020008102040808075
:100F200040201008070404090102FE0000FE050A23
:100F30000A09020080402010080810204080070A9B
:100F40000A0901007C828202040810100010070ABE
:100F50000A0901007C82829EA2A69A80807C070AF0
:100F60000A090100102844828282FE828282070AD6
:100F70000A090100F8848284F884828284F8070ACE
:100F80000A0901007C82808080808080827C070A40
:100F90000A090100F88482828282828284F8070A28
:100FA0000A090100FE808080F880808080FE070AA8
:100FB0000A090100FE808080F88080808080070A16
:100FC0000A0901007C828080808E8282827C070AEE
:100FD0000A09010082828282FE8282828282050A5E
:100FE0000A090200F82020202020202020F8080AEA
:100FF0000A0901001F040404040404048478070A95
:101000000A09010082848890E0A090888482070AFF
:101010000A090100808080808080808080FE070A2D
:101020000A0901008282C6AAAA9292828282070AD3
:101030000A0901008282C2A2928A86828282070AFB
:101040000A0901007C82828282828282827C070A73
:101050000A090100FC828282FC8080808080070C6B
:101060000C0901FE7C828282828282A2927C080626
:10107000070A0A090100FC828282FC90888482822D
:10108000070A0A0901007C828280700C0282827C3D
:10109000070A0A090100FE1010101010101010109D
:1010A000070A0A0901008282828282828282827C0D
:1010B000070A0A0901008282824444442828281031
:1010C000070A0A0901008282828292929292AA44BD
:1010D000070A0A09010082824428101028448282EB
:1010E000070A0A090100828244281010101010100B
:1010F000070A0A090100FE0204081020408080FE51
:10110000040C0C0903FFF080808080808080808048
:1011100080F0070A0A0901008040402010100804EE
:101120000402040C0C0902FFF01010101010101033
:10113000101010F007040409010610284482080169
:10114000010900FFFF03030309030880402007078C
:10115000070901007C02027E82867A070A0A0901D9
:1011600000808080BCC2828282C2BC07070709015E
:10117000007C82808080827C070A0A0901000202CA
:10118000027A86828282867A0707070901007C82BA
:1011900082FE80807C070A0A0901001C222220208E
:1011A000F820202020070A0A0901FD7A8484847827
:1011B000807C82827C070A0A090100808080BCC290
:1011C0008282828282050A0A090200600000E02011
:1011D00020202020F8060D0D0901FD0C00001C0444
:1011E0000404040484848478070A0A0901008080C6
:1011F00080828CB0C0B08C82050A0A090200E0200F
:1012000020202020202020F8070707090100EC9269
:101210009292929282070707090100BCC2828282E1
:1012200082820707070901007C82828282827C0712
:101230000A0A0901FDBCC2828282C2BC808080078A
:101240000A0A0901FD7A86828282867A02020207F0
:1012500007070901009C6242404040400707070918
:1012600001007C82807C02827C0709090901002040
:1012700020FC20202020221C07070709010084846D
:10128000848484847A070707090100828244442801
:1012900028100707070901008282929292AA440748
:1012A000070709010082442810284482060A0A0917
:1012B00001FD84848484848C74048478070707097E
:1012C0000100FE0408102040FE050C0C0903FF3845
:1012D00040404020C0C02040404038010C0C090470
:1012E000FF808080808080808080808080050C0CE2
:1012F0000901FFE010101020181820101010E0074E
:10130000030309010762928CFFFFFFFFFFFFFFFF4E
:10131000FFFFFFFFFFFFFFFFFFFFFFFFFFFFFFFFDD
:10132000FFFFFFFFFFFFFFFFFF00000009000C01B0
:101330000B0B09040080800000808080808080800A
:1013400006080809010008789490A0A47840070ACC
:101350000A0901001C222020F8202060A25C070658
:1013600006090103827C44447C82070A0A090100C1
:10137000828244287C107C101010010B0B0904FFA2
:101380008080808080008080808080040B0B090238
:10139000FF6090806090909060109060050202095C
:1013A000020988880809090900013C4299A5A1A5FC
:1013B00099423C050707090103609070907800F896
:1013C00007080809010112244890904824120604D5
:1013D00004090102FC040404050101090204F808DF
:1013E00009090900013C42B9A5B9A9A5423C060179
:1013F00001090109FC0404040903066090906007D8
:101400000909090101101010FE10101000FE040659
:10141000060901046090106080F0040606090104CA
:1014200060902010906003030309030820408007A8
:1014300009090901FE8282828282C6BA8080070A77
:101440000A0901007E8A8A8A7A0A0A0A0A0A0202BC
:1014500002090404C0C00403030902FD30906003C4
:10146000060609010440C0404040E00506060901A7
:10147000047088887000F807080809010190482462
:101480001212244890070A0A09010040C040404255
:10149000E60A121A06070A0A09010040C040404C39
:1014A000F2020C101E070A0A090100609020109237
:1014B000660A121A06070A0A090100100010102015
:1014C000408082827C070C0C09010040201000380B
:1014D000448282FE828282070C0C090100040810FB
:1014E0000038448282FE828282070C0C09010010BF
:1014F00028440038448282FE828282070B0B090155
:1015000000629C0038448282FE828282070B0B09B3
:10151000010044440038448282FE828282070B0B21
:1015200009010038443828448282FE828282070AF8
:101530000A0901006E90909090FC9090909E070D8B
:101540000D0901FD7C82808080808080827C18482B
:1015500030070C0C09010040201000FE404078408C
:101560004040FE070C0C09010004081000FE40403A
:1015700078404040FE070C0C09010010284400FE92
:10158000404078404040FE070B0B090100444400F6
:10159000FE404078404040FE050C0C0902008040AF
:1015A0002000F8202020202020F8050C0C09020043
:1015B00008102000F8202020202020F8050C0C091D
:1015C000020020508800F8202020202020F8050B61
:1015D0000B090200888800F8202020202020F8082D
:1015E0000A0A0900007C424141E1414141427C0735
:1015F0000B0B090100629C0082C2A292928A868231
:10160000070C0C090100402010007C82828282823B
:10161000827C070C0C090100040810007C82828285
:101620008282827C070C0C090100102844007C8215
:1016300082828282827C070B0B090100629C007C03
:101640008282828282827C070B0B09010044440063
:101650007C8282828282827C0707070901018244A0
:101660002810284482070C0C0901FF027C868A8A14
:101670009292A2A2C27C80070C0C090100402010AB
:1016800000828282828282827C070C0C0901000423
:10169000081000828282828282827C070C0C0901FF
:1016A0000010284400828282828282827C070B0B97
:1016B000090100444400828282828282827C070C7B
:1016C0000C09010004081000828244281010101038
:1016D000070A0A0901008080FC828282FC808080E7
:1016E000060A0A09010038444448D0484444445892
:1016F000070B0B090100201008007C02027E828685
:101700007A070B0B090100040810007C02027E829C
:10171000867A070B0B090100102844007C02027E28
:1017200082867A070A0A090100324C007C02027E96
:1017300082867A070A0A0901004444007C02027E7C
:1017400082867A070B0B090100182418007C02021C
:101750007E82867A0707070901006C92127C9092BC
:101760006E070A0A0901FD7C82808080827C18480D
:1017700030070B0B090100402010007C8282FE80A4
:10178000807C070B0B090100040810007C8282FE9C
:1017900080807C070B0B090100102844007C8282AA
:1017A000FE80807C070A0A0901004444007C828292
:1017B000FE80807C050B0B09020080402000E020A9
:1017C00020202020F8050B0B09020010204000E02B
:1017D0002020202020F8060B0B0901002050880053
:1017E0007010101010107C050A0A09020090900079
:1017F000E02020202020F8070B0B09010048305082
:10180000087C82828282827C070A0A090100629C2B
:1018100000BCC28282828282070B0B090100402039
:1018200010007C82828282827C070B0B09010004FB
:101830000810007C82828282827C070B0B090100E7
:10184000102844007C82828282827C070A0A090175
:1018500000629C007C82828282827C070A0A0901E3
:10186000004444007C82828282827C07090909014B
:101870000010381000FE001038100709090901FF98
:10188000027C8A8A92A2A27C80070B0B090100408D
:101890002010008484848484847A070B0B0901005F
:1018A000040810008484848484847A070B0B090163
:1018B00000102844008484848484847A070A0A09F6
:1018C00001004848008484848484847A060E0E09CA
:1018D00001FD0810200084848484848C740484783E
:1018E000070C0C0901FD808080BCC28282C2BC80D2
:1018F0008080060D0D0901FD48480084848484849D
:101900008C7404847800772911241FBECFEFD8E0AF
:10191000DEBFCDBF14E0A0E0B1E0E0E8FAE502C030
:1019200005900D92AC30B107D9F725E0ACE0B4E0FA
:1019300001C01D92A035B207E1F71CE0C4E8DCE06D
:1019400004C02197FE010E94382DC338D107C9F782
:101950000E949A210C943E2D0C9400004F925F92AD
:101960006F927F928F929F92AF92BF92CF92DF92AF
:10197000EF92FF920F931F93CF93DF9300D000D08D
:10198000CDB7DEB74B015C0129013A01670178014F
:1019900020E030E0A9010E94522B87FDA6C020E084
:1019A00030E0A901C301B2010E94522B87FD9DC006
:1019B00020E030E0A901C801B6010E94522B87FD4A
:1019C00094C081E02091F0043091F1042130310580
:1019D00009F080E0809311058092D6049092D7049C
:1019E000A092D804B092D9044092DA045092DB0459
:1019F0006092DC047092DD04C092DE04D092DF04B9
:101A0000E092E004F092E104609104057091050514
:101A100080910605909107050E94FF2B20E030E0A1
:101A20004AE754E40E94572B69837A838B839C8313
:101A30008092E2049092E304A092E404B092E50460
:101A40009B01AC01C301B2010E94B62C2B013C01E9
:101A50004092E6045092E7046092E8047092E90430
:101A600029813A814B815C81C701B6010E94572BC5
:101A70006B017C01C092EA04D092EB04E092EC048A
:101A8000F092ED048091EE049091EF04019769F5D6
:101A9000A501940160E070E0CB010E94E52A60930B
:101AA000E2047093E3048093E4049093E504A301BB
:101AB000920160E070E0CB010E94E52A6093E604A9
:101AC0007093E7048093E8049093E904A7019601DA
:101AD00060E070E0CB010E94E52A6093EA04709315
:101AE000EB048093EC049093ED040F900F900F9013
:101AF0000F90DF91CF911F910F91FF90EF90DF90AA
:101B0000CF90BF90AF909F908F907F906F905F909D
:101B10004F90089580E0089520911A0530911B059B
:101B20002817390799F190931B0580931A050097A0
:101B300039F120912D05FC01211129C03596E49140
:101B4000E0932E050C96FC01849180932F058091E3
:101B50002E05082E000C990B20912F05821B910950
:101B600027FD939520913005203441F0829FC001DC
:101B7000112426E0969587952A95E1F78093310503
:101B80008AE89DE090932C0580932B0508952130E1
:101B900031F43F96E491E0932E054096D4CF3D96E4
:101BA000E491E0932E050E96CECFFC01808D8F5FE1
:101BB0000895AF92BF92CF92DF92EF92FF920F9370
:101BC0001F93CF93DF936C017B018B01040F151FD3
:101BD000EB015E01AE18BF08C017D10759F069913B
:101BE000D601ED91FC910190F081E02DC60109959F
:101BF000892B79F7C501DF91CF911F910F91FF904C
:101C0000EF90DF90CF90BF90AF900895833081F038
:101C100028F4813099F08230A9F008958730A9F036
:101C20008830C9F08430B1F4809180008F7D03C08A
:101C3000809180008F7780938000089584B58F779E
:101C400084BD089584B58F7DFBCF8091B0008F77E0
:101C50008093B00008958091B0008F7DF9CFCF932D
:101C6000DF93282F30E0F901E255FE4F8491F9010E
:101C7000EE5FFE4FD491F901E251FF4FC491CC23A6
:101C8000A1F081110E94060EEC2FF0E0EE0FFF1F75
:101C9000EC51FF4FA591B491EC91ED2381E090E0E0
:101CA00009F480E0DF91CF91089580E090E0FACFD1
:101CB0001F93CF93DF93282F30E0F901E255FE4FB9
:101CC0008491F901EE5FFE4FD491F901E251FF4F8B
:101CD000C491CC23A9F0162F81110E94060EEC2F7F
:101CE000F0E0EE0FFF1FE652FF4FA591B4918FB7C2
:101CF000F894EC91111108C0D095DE23DC938FBFCE
:101D0000DF91CF911F910895DE2BF8CFCF93DF9312
:101D100090E0FC01EE5FFE4F249182519F4FFC0149
:101D200084918823C9F090E0880F991FFC01E0534B
:101D3000FF4FA591B491FC01E652FF4FC591D4919C
:101D400061110DC09FB7F8948C91209582238C93DC
:101D50008881282328839FBFDF91CF910895623027
:101D600051F49FB7F8943C91822F809583238C93F4
:101D7000E8812E2BEFCF8FB7F894EC912E2B2C937C
:101D80008FBFEACFCF93DF93EC0161E089E00E943F
:101D9000860E209731F460E089E0DF91CF910C94BA
:101DA000580ECF3FD10511F461E0F6CFE7EBF1E03B
:101DB000E491E33029F140F4E130B1F0E230D9F0C0
:101DC000C038D1058CF7E7CFE73021F1E83051F189
:101DD000E430B1F780918000806280938000D093DE
:101DE0008B00C0938A0004C084B5806884BDC7BDE1
:101DF000DF91CF91089584B5806284BDC8BDF8CFCE
:101E000080918000806880938000D0938900C09387
:101E10008800EECF8091B00080688093B000C093BE
:101E2000B300E6CF8091B00080628093B000C09391
:101E3000B400DECF3FB7F89480919C0490919D044C
:101E4000A0919E04B0919F0426B5A89B05C02F3F8A
:101E500019F00196A11DB11D3FBFBA2FA92F982FD0
:101E60008827BC01CD01620F711D811D911D42E0CB
:101E7000660F771F881F991F4A95D1F708958F9293
:101E80009F92AF92BF92CF92DF92EF92FF924B015F
:101E90005C010E941A0F6B017C010E941A0F6C19E1
:101EA0007D098E099F09683E734081059105A8F35D
:101EB00021E0821A9108A108B10888EEC80E83E0DB
:101EC000D81EE11CF11C81149104A104B10429F76E
:101ED000FF90EF90DF90CF90BF90AF909F908F904A
:101EE00008952FB7F89460919804709199048091A7
:101EF0009A0490919B042FBF0895089580E008955F
:101F0000DC011696ED91FC91179712968C91481B67
:101F1000477081E090E001C0880F4A95EAF7E60F2C
:101F2000F11D3081222319F0832B80830895809541
:101F30008323FBCFFB014181DC0112962C91129788
:101F4000421768F013962C911397241740F0608184
:101F500015962C91621718F424810C94800F089523
:101F6000FC0180819281980F92832181921760F405
:101F700094819F5F94839381890F821710F08FEF74
:101F8000820F838381E0089580E00895FC0112822E
:101F900080818150838314820895DB01ED91FC914F
:101FA00009940F931F93CF93E0912405F091250599
:101FB000309719F086E195E0099500911805109188
:101FC0001905E0914705F091480582E00995E091F7
:101FD0004705F091480581E0099530E020E045E1B2
:101FE000B80186E195E00E94CD0FC82F882341F00B
:101FF00029E435E047E1B80186E195E00E94CD0F84
:10200000E0914705F091480580E009958C2FCF912C
:102010001F910F910895CF93DF931F92CDB7DEB735
:102020009E012F5F3F4F47E40E94CD0F89810F90A3
:10203000DF91CF910895CF93DF931F92CDB7DEB795
:102040009E012F5F3F4F46E40E94CD0F89810F9084
:10205000DF91CF910895BF92CF92DF92EF92FF92DE
:102060000F931F93CF93DF938C01D42EE901FB01D3
:10207000E280F380F2E34F1709F476C0F417C8F05A
:102080008CE2481709F470C0EDE24E17E9F0F7E171
:102090004F1779F19E014D2DB701C801DF91CF9106
:1020A0001F910F91FF90EF90DF90CF90BF900C9415
:1020B000CD0F86E4481709F44CC0E7E44E1709F445
:1020C0004EC0FBE34F13E6CFB701C8010E940B10CF
:1020D000C980C094C80EB701C8010E941B10988126
:1020E0009095890F8883C9828B818E5F83708B83E3
:1020F0004BC047E1B701C8010E94CD0FB701C8012D
:102100000E941B10BA80B094B80EB701C8010E949B
:102110001B10D880D094D80EB701C8010E940B10B4
:10212000CB80C094C80EB701C8010E940B109981E2
:102130009095890FB882C982DA828B8381E0DF9122
:10214000CF911F910F91FF90EF90DF90CF90BF90B4
:102150000895B701C8010E941B108883EFCFB70113
:10216000C8010E940B10F9CFB701C8010E940B10E3
:10217000C980C094C80EB701C8010E941B10988185
:102180009095890F8883C9829E014D2DB701C801A2
:102190000E94CD0FD3CFCF93DF93EC016A817B8177
:1021A0000E941B1088836A817B81CE010E940B10E4
:1021B00089836A817B8130E020E048E4CE010E947F
:1021C000CD0F8B879E012D5C3F4F6A817B8147E15C
:1021D000CE01DF91CF910C94CD0FCF93DF93C091BF
:1021E0001805D0911905E0914705F091480582E066
:1021F000099530E020E04AE0BE0186E195E00E94CA
:10220000CD0FC82FE0914705F091480583E009956F
:10221000E0914705F091480580E00995CC2329F02D
:1022200086E195E00E94CB10C1E08C2FDF91CF9129
:102230000895CF93DF9380914F05811105C081E010
:1022400080934F050E94ED10C0911805D09119059B
:10225000E0914705F091480582E00995E091470536
:10226000F091480581E0099530E020E044E1BE01AD
:1022700086E195E00E94CD0F29E435E047E1BE01FB
:1022800086E195E00E94CD0FE0914705F091480569
:1022900080E0DF91CF9109940B96FC018491089521
:1022A0000A96FC0184910895FC01849108950E948E
:1022B0005411882321F0823011F083E0089586E0E4
:1022C0000895FC01E60FF11D849190E0982F882776
:1022D0003196E4918E0F911D089568E00C94611180
:1022E00066E00C9461115F926F927F928F929F9241
:1022F000AF92BF92CF92DF92EF92FF920F931F9314
:10230000CF93DF93EC01E62EF42EC22E0C811D81BB
:10231000C8010E945411D82E8C819D810E945711B2
:10232000982E21E0AA24AA94D21202C02FE0A22E55
:102330008C819D810E945011D82E8C819D810E949C
:102340004C11B82E8C819D810E946D11E0E6EC1538
:1023500078F4009769F0080F191F91E6D92EBC1484
:10236000C0F4188A1B8A1C8A198A1A8A80E0A0C0C5
:102370008C819D810E947011F0E4FC1538F4009767
:1023800029F0080F191F81E4D82EE9CF0F5E1F4FE7
:10239000E6CFBD1430F3892D90E0F80124912F3F52
:1023A00031F40F5F1F4FBD14E1F2D394F6CFCD107F
:1023B00072C08C819D810E94541198012F5F3F4F04
:1023C000F801882319F0823009F04EC084918B8B7C
:1023D000F90124912C8BF8013396E491E88BF801F4
:1023E0003496E491E98BF8013596E491EA8B011576
:1023F000110509F4BBCF8C819D810E9457113C8946
:10240000F31A9A89F91A9FEF930F9F0D2CA94EA9E1
:102410004F1508F449C0921718F49F1508F047C0EB
:102420002B899989E90E9FEF920F9E0D4BA95DA90B
:102430005E1508F44DC0941718F49E1508F037C0C7
:10244000080F111D295F722E7694769476946F2C66
:10245000630E5E01FCE1AF0EB11C872C912CF614CB
:1024600031F15E2C68014AC08491982F9F70925080
:102470009A8B82958F70898BF9012491822F8F70AE
:102480008C8B22952F702B8BF8013296E491E2957C
:10249000EF70E88BACCF3296E491EA21E80FF92F88
:1024A000F11D0E0F1F1F7FCF921708F0B6CF88893E
:1024B000DF91CF911F910F91FF90EF90DF90CF9020
:1024C000BF90AF909F908F907F906F905F90089596
:1024D000941708F0B2CFEBCFF60184916A817B812B
:1024E0005C8EFD8E1F8E8E8F95014BE3CE010E9478
:1024F000CD0FFFEFCF1ADF0A28E0520E8C2D801B84
:10250000871550F3080D191DF394A9CFEF92FF9290
:102510000F931F93CF93DF93F82E062FE42E152FE2
:10252000E0912B05F0912C0586E195E00995080FC7
:10253000CE2DD12F10E02991211108C0812FDF91DC
:10254000CF911F910F91FF90EF900895402F6F2D25
:1025500086E195E00E947311F80E180FECCF0F93EF
:102560001F93CF93DF938C01E0912B05F0912C0505
:1025700086E195E00995D82FC0E0F8012491222347
:1025800051F04D2F6C2F86E195E00E947311C80F1A
:102590000F5F1F4FF2CF8C2FDF91CF911F910F91C3
:1025A00008952EE93FE0009709F40895F901319765
:1025B000F1F70197F8CFCF93DF9300D0CDB7DEB717
:1025C00020ED37E03A8329839091BC00982311F0E5
:1025D00081E00FC029813A81232B81F48091D504B9
:1025E00081FDF6CF8091D40481110DC091E09093CC
:1025F000D4040F900F90DF91CF91089529813A81F3
:1026000021503109DFCF80E0F4CF84EA8093BC0011
:1026100061E080E80E94DB12811102C080E0089531
:102620008091B900887F883051F0803141F08091ED
:10263000D4048111F3CF82E08093D404EFCF88E7F4
:102640008093BB0084E88093BC0062E080E80E9435
:10265000DB12882319F38091D50481FD05C0809198
:10266000B900887F883119F781E0089584E9809363
:10267000BC0064E080E10C94DB128093BB0084E832
:102680008093BC0063E080E80E94DB128823A1F005
:102690008091D50481FD0DC08091B900887F88327A
:1026A00041F08091D404811106C092E09093D4044B
:1026B000089581E0089580E008951092D40408956B
:1026C0008093D5041092B90084FF05C08CE08093FC
:1026D000B8000C945D1388E4FACFCF93DF93FC012C
:1026E00023A5222389F0EC010E940513811104C067
:1026F00080E0DF91CF9108958EA1811107C00E94E3
:102700003D138823A9F31BA681E0F3CF80E4F7CF24
:102710000F931F93CF93DF93C62FD42F890163307C
:1027200001F138F4613099F0623009F449C0C1E038
:1027300012C0663029F1673091F16530C1F70E940F
:102740006D13811117C00E943613C0E004C0FC0154
:1027500086A50E9460138C2FDF91CF911F910F915E
:102760000895FC0116A221E023A74111E0CF0E94A9
:102770003613DDCF8D2F0E943D138111D8CFE3CFCB
:102780000E946D138823F9F2DD2389F2F80181910B
:102790008F010E943D138823B1F2D150F5CF0E94E2
:1027A0006D13882381F2DD2311F2F80184910E94D8
:1027B0003D13C82F882379F20F5F1F4FD150F3CFFD
:1027C000FC0146A321E023A7B2CFDB011496ED91D3
:1027D000FC9130E020E065E00994DB011496ED9176
:1027E000FC9130E020E062E00994DB011496ED9169
:1027F000FC9130E020E063E00994CF92DF92EF9209
:10280000FF920F931F93CF93DF938C017B016A019B
:1028100080E0F601C491811110C081E0CF3F49F002
:102820004C2FB701C8010E94E513882309F444C066
:1028300080E0BFEFCB1ADB0AECCF4FEFCF3F89F33D
:10284000CE3FD9F1C03FA0F7C03E38F04C2F4F70BB
:10285000B701C8010E94ED13EBCFC03D38F04C2FFB
:102860004F70B701C8010E94F513E2CFC03CF8F0E9
:10287000D7011496ED91FC9130E020E040E064E057
:10288000C8010995C295C07FCE5FD0E0CE010E94FD
:10289000D112D7011496ED91FC9130E020E041E097
:1028A00064E0C8010995CE010E94D112C1CFC7FDD5
:1028B000BFCF8C2F90E0F8CF80E0DF91CF911F91B8
:1028C0000F91FF90EF90DF90CF900895AF92BF925D
:1028D000CF92DF92FF920F931F93CF93DF936C0100
:1028E0008B01F42EE90180E1481709F47EC08417BA
:1028F00078F1AAE04A1709F461C0BFE04B1709F468
:102900007FC0F80102811381F2E3FF1609F4DDC0F4
:10291000FF1508F48EC085E1F81609F4DBC0A7E1C5
:10292000FA1609F4ECC0B4E1FB1265C0D8011696A2
:10293000ED91FC91179715968C918E0F9F2F911DFD
:1029400011928E179F07E1F7C8010E94C60F53C06E
:10295000E1E14E1709F451C0F5E14F13D2CFFB016D
:10296000A280B38042EA50E0C6010E94FD13D50167
:1029700014964C91406BB801C6010E94E51341E0EA
:10298000B801C6010E94ED13F50126813781D801F7
:102990001496ED91FC91D50115964C9166E0C60117
:1029A000099581111CC080E0DF91CF911F910F919B
:1029B000FF90DF90CF90BF90AF900895DB01149609
:1029C000ED91FC9130E020E042E061E0C601099524
:1029D0004AEA50E0B801C6010E94FD1392CF40E0E0
:1029E000B801C6010E94F5138CCF49E950E0B80147
:1029F000C6010E94FD1381E0D7CF4EE850E0F7CF2B
:102A000041E0C6010E94F51340E0B801C6010E94F2
:102A1000ED1341E8B801C6010E94E5134881B801F1
:102A2000C6010E94E51340E0B801C6010E94F513FB
:102A3000E2CFE6E4FE1609F46CC0F7E4FF1609F4F1
:102A40006DC08BE3F812D7CF99818B8138E0390FB5
:102A5000813031F0833011F0392F02C0392F985076
:102A600021E0D80113964C91491708F420E041E089
:102A7000391708F040E091E0F8015281351708F469
:102A800090E0322F342B932319F4242309F4B3CF8D
:102A9000FA80D12CC12C843048F490E0FC01E45D34
:102AA000FD4FC080885D9D4FDC01DC90F7FE04C0C7
:102AB000BE01C8010E949A0F88818C0D888389818C
:102AC0008D0D8983FF0C91F796CFBE01C8010E943E
:102AD0009A0F91CFC8010E94B00F882309F463CFE9
:102AE000D8011696ED91FC91179715968C918E0F43
:102AF0009F2F911D11928E179F07E1F77CCF1882AF
:102B0000F80182818983858181508A8383818B83C7
:102B100072CFD80115968C9188836DCFF801818191
:102B2000FBCF80917A00806980937A008EE4809355
:102B30007C0061E070E080E090E00E943F0F83B78E
:102B4000817F826083BF80E130E020E093B79160B5
:102B500093BF889593B79E7F93BF90917A0096FD1F
:102B6000FCCF4091780050917900240F351F81509F
:102B700069F780917A008F7780937A0084E03695A8
:102B800027958A95E1F750E040E064EB7BE281E134
:102B900090E00E948A2AC901089580917A00806994
:102BA00080937A0088EC80937C0064E170E080E0A0
:102BB00090E00E943F0F83B7817F826083BF80E2F5
:102BC00070E060E093B7916093BF889593B79E7F64
:102BD00093BF90917A0096FDFCCF209178003091C0
:102BE0007900620F731F815069F780917A008F77A7
:102BF00080937A00769567957695679562527A40CC
:102C000090E080E00E94FF2B26EF38E24CE151E497
:102C10000E94572B089590917A00906990937A00C2
:102C20008E50806480937C0083B7817F826083BFF5
:102C300020E290E080E033B7316033BF889533B74E
:102C40003E7F33BF30917A0036FDFCCF4091780053
:102C500050917900840F951F215069F720917A00D7
:102C60002F7720937A0025E0969587952A95E1F7AE
:102C700008958FE00E940B16A091A704B091A804BC
:102C80009C010E94D62A0E94012C28E539E743E3E3
:102C900053E40E94572B0E94D02BCB0108958091C2
:102CA0001805909119052091AA042223C1F021E072
:102CB0008A30920751F090930D0180930C018AE0C5
:102CC00091E090931905809318058BE290E1909321
:102CD0000B0180930A0186E195E00C94CB108A5099
:102CE000914049F480910C0190910D019093190548
:102CF00080931805F0CF0895880F991F9093900442
:102D000080938F04660F771F70938E0460938D04F9
:102D10008091A904882319F0519541955109509348
:102D2000920440939104220F331F3093B6042093F2
:102D3000B50408950F931F93CF938091C401882306
:102D400099F0CFEF0FEE11E061E085E00E94580EA0
:102D5000C8010197F1F760E085E00E94580EC801B4
:102D60000197F1F7C15081F7CF911F910F9108950D
:102D7000CF92DF92EF92FF920F931F93CF93DF9347
:102D8000D82EC92E86E00E942F0EC1E0892B09F0B3
:102D9000C0E00E94191185EDE82E8DE0F82E86E73F
:102DA0009DE00E948C0DF0922C05E0922B050D2DDC
:102DB0001C2DD0E0F801419151918F016D2F80E0E1
:102DC0000E948612D05FD038A9F70E94D10F8111DE
:102DD000E6CFCC2369F086E00E942F0EC1E0892B5C
:102DE00039F06AE070E080E090E00E943F0FC0E0C0
:102DF00086E00E942F0E892B61F7C111ECCFDF9185
:102E0000CF911F910F91FF90EF90DF90CF900C9496
:102E10009A165F926F927F928F929F92AF92BF921B
:102E2000CF92DF92EF92FF920F931F93CF93DF9396
:102E30009090C304AA24A394911001C0A12C292D21
:102E400030E0609172016150770B41E050E090E01A
:102E500080E00E947C1686E00E942F0EDD24D39431
:102E6000892B09F0D12C05ED1DE046E0B42EC09170
:102E7000B504D091B604D595C795CC2E7E01FF241C
:102E8000C7018A0D911DA7FC9A9589199109A12C5A
:102E900097FD06C08330910514F082E090E0A82EE3
:102EA0000E9419118A2D0A2C000C990B3C012FEF5E
:102EB000621A720A629420EF62225C2C5A18E81A95
:102EC000F90A86E79DE00E948C0D10932C05009373
:102ED0002B0584E790E00E94AF1240E352E0662D9C
:102EE00080E00E948612912C812C712C852D870DFB
:102EF000739490917201891780F4C701880D991D10
:102F0000B89EA001B99E500D112445515E4F672D0A
:102F10006295607F8CE00E9486128FEF881A980A73
:102F200023E07212E3CF0E94D10F8111CACFDD20BE
:102F300061F086E00E942F0E892B39F06AE070E084
:102F400080E090E00E943F0FD12C86E00E942F0E7F
:102F5000892BB1F4D11014C00E949A16C092C304F8
:102F6000DF91CF911F910F91FF90EF90DF90CF9065
:102F7000BF90AF909F908F907F906F905F900895DB
:102F80009C2E75CF2F923F924F925F926F927F92BD
:102F90008F929F92AF92BF92CF92DF92EF92FF9269
:102FA0000F931F93CF93DF9300D000D0CDB7DEB740
:102FB0007C01942EFC012080318077247394411190
:102FC00001C0712C70E0759567956A83292D30E0FA
:102FD0006250710941E050E090E080E00E947C1670
:102FE00086E00E942F0E66246394892B09F0612CE1
:102FF000CC24CA944FE7D42E55EDA52E5DE0B52E16
:103000008091B5049091B604959587959C838B83A8
:103010005B808C011127C801870D911D77FC9A9563
:1030200089199109712C97FD06C08330910514F020
:1030300082E090E0782E0E941911272D072C000CB9
:10304000330BC9010196E82FE295E07FE9832C9DBF
:10305000C0012D9D900D3C9D900D1124080F191F4E
:10306000000F111F86E79DE00E948C0DB0922C0589
:10307000A0922B05F7014081518160E080E00E9421
:103080008612F2E32F16F2E03F0661F44091C3048A
:1030900086E0489FA001112445515E4F60E086E321
:1030A0000E94861240E352E0698180E00E9486120D
:1030B00088248394912C412C4394852D840D871969
:1030C0009A81891778F4F401EE0FFF1FE00FF11FCA
:1030D000EE0DFF1D40815181642D6295607F8CE073
:1030E0000E948612EFEF8E1A9E0AF3E04F12E4CF91
:1030F0000E94D10F8111B6CF662061F086E00E9458
:103100002F0E892B39F06AE070E080E090E00E9499
:103110003F0F612C86E00E942F0E892BE1F4611095
:103120001AC00E949A16852D0F900F900F900F9045
:10313000DF91CF911F910F91FF90EF90DF90CF9093
:10314000BF90AF909F908F907F906F905F904F90C7
:103150003F902F9008959B8053CF3F924F925F9264
:103160006F927F928F929F92AF92BF92CF92DF9297
:10317000EF92FF920F931F93CF93DF93CDB7DEB7FC
:103180002E970FB6F894DEBF0FBECDBF8091CD0451
:10319000882309F4A5C11092D0041092D104109292
:1031A000D2041092D3048090D0049090D104A090C7
:1031B000D204B090D304C090BE04D090BF04E0907D
:1031C000C004F090C104A7019601C501B4010E949A
:1031D000E52A2B013C0120E030E0A9010E94B12C3E
:1031E00018160CF0A0C1C301B2010E94D02B80912F
:1031F000AB04882309F4B8C1C0929304D09294041C
:10320000E0929504F0929604E12CF12C00EA10E48F
:1032100020E030E040E450E46E31710540F0E12CF4
:10322000F12C00E81FE320E030E040E05FE360E0E5
:1032300070E080E391E40E94AE0C80911005882339
:1032400009F42AC10E94710F6D837E838F83988752
:103250008091F8049091F904A091FA04B091FB04D4
:103260004D815E816F817885481B590B6A0B7B0B02
:103270008091040590910505A0910605B091070580
:10328000481759076A077B0708F406C1E091F20462
:10329000F091F30480819181A281B38189839A8323
:1032A000AB83BC83E091F604F091F7049C01AD017F
:1032B00060817181828193810E94E52A4B015C01CA
:1032C00020910005309101054091020550910305C0
:1032D00069817A818B819C810E94E52A6B017C0146
:1032E0002091E6043091E7044091E8045091E9040C
:1032F000C501B4010E94B62C2091FC043091FD045C
:103300004091FE045091FF040E94E62A2B013C01EB
:103310004092FC045092FD046092FE047092FF04FF
:103320003090110531101AC02091E2043091E3046D
:103330004091E4045091E504C701B6010E94B62C07
:103340009B01AC01C301B2010E94E52A6093FC0419
:103350007093FD048093FE049093FF044090FC045E
:103360005090FD046090FE047090FF0410910C05D5
:1033700090910D059E87A0910E05AD8700910F05D8
:10338000212F392F4A2F502FC301B2010E94B12C97
:1033900018160CF0CCC0812F9E85AD85B02F809380
:1033A000FC049093FD04A093FE04B093FF0433202B
:1033B00009F4D6C02091E2043091E3044091E40482
:1033C0005091E504C501B4010E94B62C4B015C018B
:1033D0002091EA043091EB044091EC045091ED040B
:1033E000C701B6010E94B62C9B01AC016091FC04A0
:1033F0007091FD048091FE049091FF040E94E52AE3
:10340000A50194010E94E62A6B017C019B01AC019D
:10341000612F7E858D85902F0E94522B87FD18C0CD
:1034200010910805909109059E87A0910A05AD8726
:1034300000910B05212F392F4A2F502FB601C701BC
:103440000E94522B87FD04C01C2DDE86ED860F2DB9
:10345000E091F404F091F504812F9E85AD85B02FA5
:1034600080839183A283B38389819A81AB81BC815C
:103470008093000590930105A0930205B093030586
:103480008D819E81AF81B8858093F8049093F90473
:10349000A093FA04B093FB046091C7047091C80430
:1034A0008091C9049091CA040E94C92BCB012E9629
:1034B0000FB6F894DEBF0FBECDBFDF91CF911F9145
:1034C0000F91FF90EF90DF90CF90BF90AF909F90C3
:1034D0008F907F906F905F904F903F900C94C20EB2
:1034E0008091CC0460918A0170918B0181110EC092
:1034F0008091BC049091BD042091CB04BC01222397
:1035000029F060918501680F792F711D90E080E0AE
:103510000E94FF2B6093D0047093D1048093D20457
:103520009093D30440CEC301B20190585ECE8091F7
:10353000080590910905A0910A05B0910B058987AE
:103540009A87AB87BC879C01AD01C301B2010E9481
:10355000522B87FF2CCF89859A85AB85BC851FCFE1
:10356000812C912C540134CF20E030E040E05FE327
:10357000C701B6010E94E62A9B01AC01C501B40156
:103580000E94B12C18164CF41092C7041092C80473
:103590001092C9041092CA047FCF80E090E0AFE798
:1035A000B3E48093C7049093C804A093C904B09374
:1035B000CA0472CF4F925F926F927F928F929F92C6
:1035C000AF92BF92CF92DF92EF92FF92CF93DF93B1
:1035D0008090A3049090A404A090A504B090A604A9
:1035E000C091C304D0E0C501B4010E94C92B6B0196
:1035F0007C0120E030E048E453E4C501B4010E94BE
:10360000522B93E0CC0FDD1F9A95E1F7CE5CDE4F95
:1036100087FF31C02881398150E040E025513109D0
:1036200041095109C701B6010E94282D28EC30E05C
:1036300040E050E00E948A2ACA01B9016B5E7F4FC8
:103640008F4F9F4F0E94012C6093BE047093BF0464
:103650008093C0049093C104DF91CF91FF90EF90CD
:10366000DF90CF90BF90AF909F908F907F906F90A2
:103670005F904F9008954A805B80712C612C20E010
:1036800030E04CE853E4C501B4010E94522B87FF9F
:103690001FC088809980B12CA12CA7019601285CBD
:1036A000310941095109C301B201681979098A092F
:1036B0009B090E94282D20E530E040E050E00E9468
:1036C0008A2ACA01B901680D791D8A1D9B1DBACFCE
:1036D0002C813D8150E040E0241935094609570905
:1036E000C701B60168517140810991090E94282DD6
:1036F00020E530E040E050E00E948A2ACA01B9018A
:10370000640D751D861D971D9DCFDF92EF92FF9270
:103710000F931F93CF93DF93EC01D62E1CAD0BAD0F
:103720007C0184E0E80EF11CE98DFA8DC701099552
:10373000412F480F2D2D602FC7010E9473119BADA3
:10374000890F8BAF81E090E0DF91CF911F910F91B6
:10375000FF90EF90DF9008950F931F93CF93DF9327
:103760008C01D0E0C0E0F801EC0FFD1F64916623EE
:1037700041F082E195E00E94851B892B11F0219692
:10378000F2CFCE01DF91CF911F910F910895682F55
:1037900082E195E00C94851B7F928F929F92AF926D
:1037A000BF92CF92DF92EF92FF920F931F93CF932E
:1037B000DF93D0E0F12CE12C36E0932E45EDC42EC2
:1037C0004DE0D42E50E3752E60E2862E0E2D86E05D
:1037D0000E942F0E11E0892B09F010E021E430E067
:1037E00041E050E060E670E08FE190E00E947C16DE
:1037F0008091B5049091B60495958795C82F8F3127
:10380000C1F52FE530E041E050E060E670E08FE187
:1038100090E00E947C16CFE50E94191186E79DE09A
:103820000E948C0DD0922C05C0922B058FE790E062
:103830000E94AF12D0934D0570924E058EE50E9406
:10384000C71B10924D0580924E05B12CA12CA016DD
:10385000F0F48091C304F501989EE00DF11D112450
:10386000E551FE4F80810E94C71B8FEFA81AB80A4E
:10387000EECF803689F620E230E041E050E060E6AD
:1038800070E08FE190E00E947C16C0E2C5CFD0933B
:103890004D0580924E058C2F0E94C71B0E94D10FB0
:1038A0008111BCCF112361F086E00E942F0E892B7D
:1038B00039F06AE070E080E090E00E943F0F10E095
:1038C00086E00E942F0E892B09F092CF111190CF24
:1038D0000091C304909E8001112405511E4FF801F0
:1038E000EE0DFF1DC0830E949A166AE070E080E032
:1038F00090E00E943F0FEFEFEE1AFE0AD75FDD3235
:1039000009F064CFF8011582DF91CF911F910F91DB
:10391000FF90EF90DF90CF90BF90AF909F908F90EF
:103920007F900895089590E080E00895FC01019053
:103930000020E9F73197AF01481B590BBC0182E128
:1039400095E00C94D90D8F929F92AF92BF920F93F6
:103950001F93CF93DF93CDB7DEB7A1970FB6F8943F
:10396000DEBF0FBECDBF19A2423008F44AE08E017F
:103970000F5D1F4F842E912CB12CA12CA501940119
:103980000E94B42AE62FB901CA01EA30F4F4E05DDE
:10399000D801EE938D01232B242B252B79F790E072
:1039A00080E0109719F0CD010E94961CA1960FB6E9
:1039B000F894DEBF0FBECDBFDF91CF911F910F9165
:1039C000BF90AF909F908F900895E95CE1CF4F92A8
:1039D0005F926F927F928F929F92AF92BF92CF929F
:1039E000DF92EF92FF920F931F93CF936B017C01B5
:1039F000742EAC019B010E94232D882399F087E34C
:103A000092E0CF911F910F91FF90EF90DF90CF90B8
:103A1000BF90AF909F908F907F906F905F904F90EE
:103A20000C94961C46015701E894B7F82FEF3FEF2E
:103A30004FE75FE7C501B4010E94232D81110DC03E
:103A40002FEF3FEF4FE75FE7C501B4010E94522B14
:103A500018161CF48BE392E0D4CF2FEF3FEF4FE723
:103A60005FE4C701B6010E94B12C18161CF48FE365
:103A700092E0C7CF2FEF3FEF4FE75FECC701B601F2
:103A80000E94522B87FDF3CF20E030E0A901C7014F
:103A9000B6010E94522B10E000E087FF08C08DE2C3
:103AA0000E94C71B8C01F7FAF094F7F8F094C0E07D
:103AB00060E070E080E09FE37C1641F020E030E0C1
:103AC00040E251E40E94572BCF5FF6CFA701960149
:103AD0000E94E62A2B013C010E94D02B4B015C0185
:103AE0004AE00E94A31C7C01E00EF11ECC23B1F140
:103AF000C501B4010E94FF2B9B01AC01C301B201BF
:103B00000E94E52A4B015C018EE20E94C71BE80E71
:103B1000F91EC15018F120E030E040E251E4C50147
:103B2000B4010E94B62C2B013C010E94D02B4B010A
:103B3000B12CA12C4AE0C501B4010E94A31CE80EDF
:103B4000F91EC501B4010E94FF2B9B01AC01C3010A
:103B5000B2010E94E52A4B015C01DBCFC701CF9186
:103B60001F910F91FF90EF90DF90CF90BF90AF909B
:103B70009F908F907F906F905F904F9008957F926D
:103B80008F929F92AF92BF92CF92DF92EF92FF926D
:103B90000F931F93CF93DF937C0186E00E942F0E3B
:103BA00011E0892B09F010E095EDC92E9DE0D92E8A
:103BB00000E22AE0722EC091B504D091B604D595EA
:103BC000C7950E9419114E01B12CA12C86E79DE0EA
:103BD0000E948C0DD0922C05C0922B05F7014081DC
:103BE000518160E080E00E94861210924D050093A2
:103BF0004E0580E392E00E94961C70924D05009362
:103C00004E05209779F588E690E00E94AC1B0E9453
:103C1000D10F8111DBCF112361F086E00E942F0EBE
:103C2000892B39F06AE070E080E090E00E943F0F5D
:103C300010E086E00E942F0E892B09F0BCCF1111F5
:103C4000BACF0E949A16CE01DF91CF911F910F91AA
:103C5000FF90EF90DF90CF90BF90AF909F908F90AC
:103C60007F9008954AE0C501B4010E94A31C83E43B
:103C700092E00E94961CF70182819381009739F2AD
:103C80000E94961CC4CF1F93CF93DF93EC01162F95
:103C90000E94742A181739F0612FCE01DF91CF915D
:103CA0001F910C947C2ADF91CF911F910895AF92C0
:103CB000BF92CF92DF92EF92FF920F931F93CF9319
:103CC000DF936091910182E090E00E94431E609139
:103CD000900183E090E00E94431E60918B0184E09C
:103CE00090E00E94431E60918A0185E090E00E946E
:103CF000431E6091850186E090E00E94431E609122
:103D0000E90187E090E00E94431E6091E80188E0AD
:103D100090E00E94431E6091E70189E090E00E94DC
:103D2000431E6091C6048AE090E00E94431E6091A9
:103D3000AB048BE090E00E94431E6091C4018CE0D4
:103D400090E00E94431E6091AA048DE090E00E94E2
:103D5000431E6091A9048EE090E00E94431E609192
:103D6000C3048FE090E00E94431E6091720180E1E5
:103D700090E00E94431E81E1E82EF12C10E006E065
:103D8000809172011817B8F5109F60011124D0E0DE
:103D9000C0E0FE01EC0DFD1DE551FE4F6081C70145
:103DA0008C0F9D1F0E94431E2196C630D10589F7B6
:103DB000670186E0C80ED11C88E0189FE00111243D
:103DC000CE5CDE4F8EE0E80EF11C69812296C601C2
:103DD0000E94431E560182E0A80EB11CFE013297DC
:103DE0006081C60101960E94431E6501AE14BF04A6
:103DF00061F71F5FC5CFDF91CF911F910F91FF90AA
:103E0000EF90DF90CF90BF90AF9008958F929F92E8
:103E1000AF92BF92CF92DF92EF92FF92CF938FEF4C
:103E200090E00E94C20E83ED9EE00197F1F78EE0D4
:103E30000E940B16BC0190E080E00E94FF2B4B011A
:103E40005C018AE00E942F0E90918C04981729F053
:103E500091E09093C20480938C04809109019FEFBC
:103E6000980F90930901811106C00E943916909312
:103E7000C5048093C4046091C7047091C804809104
:103E8000C9049091CA040E94C92BCB010E94C20EA2
:103E9000C090A304D090A404E090A504F090A604E0
:103EA000A7019601C501B4010E94E52A2DEC3CEC66
:103EB0004CE45DE30E94B62CA70196010E94E62A1D
:103EC0006093A3047093A4048093A5049093A60424
:103ED0000E94DA1A6091CE047091CF0490E080E0E5
:103EE0000E94FF2B4B015C01C090D004D090D10404
:103EF000E090D204F090D304A70196010E94522BC7
:103F0000811151C02091BE043091BF044091C00482
:103F10005091C104C501B4010E94E52A4B015C0126
:103F200020E030E0A9010E94B12C181694F520E0A1
:103F300030E040EA50E4C501B4010E94B12C1816EB
:103F400094F16091CE047091CF0490E080E00E94E3
:103F5000FF2BA70196010E94E52A4B015C0120E09E
:103F600030E0A9010E94B12C181664F520E030E081
:103F700040E85FE3C501B4010E94522B181664F1BA
:103F8000C701B6010E94D02B7093CF046093CE047A
:103F900023C020E030E040EA50ECC501B4010E94AB
:103FA000522B87FFCECF6091BE047091BF048091E9
:103FB000C0049091C1040E94D02B7093CF046093F1
:103FC000CE04BFCF20E030E040E85FEBC501B40194
:103FD0000E94B12C87FFD4CF6091BC047091BD04C6
:103FE00090E080E00E94FF2B2091BE043091BF043E
:103FF0004091C0045091C1040E94E52A6B017C01EC
:1040000020E030E0A9010E94B12C18160CF05DC030
:10401000C701B6010E94D02B6530710508F059C068
:1040200080911B02811105C08091EA0181110E94DB
:104030009A1681E080931B021092EA018091CE04CF
:104040009091CF04853F21E0920710F01092080173
:1040500020910801211140C0843F9140E8F58FEF85
:1040600090E00E94C20E0E949A16C1E0C09308011F
:104070000E9409170E94571EC093C2048EE00E943E
:104080000B16BC0190E080E00E94FF2B6093A3041C
:104090007093A4048093A5049093A6041092B40492
:1040A0002091BC043091BD044AE050E060E971E029
:1040B00086E990E0CF91FF90EF90DF90CF90BF9096
:1040C000AF909F908F900C947C16C701B6019058CA
:1040D000A1CF10921B02B2CFCF91FF90EF90DF9053
:1040E000CF90BF90AF909F908F9008950C94742ABA
:1040F0001F920F920FB60F9211242F933F938F931D
:104100009F93AF93BF938091980490919904A0914D
:104110009A04B0919B043091970423E0230F2D372C
:1041200058F50196A11DB11D209397048093980422
:1041300090939904A0939A04B0939B0480919C045B
:1041400090919D04A0919E04B0919F040196A11DA1
:10415000B11D80939C0490939D04A0939E04B09302
:104160009F04BF91AF919F918F913F912F910F909D
:104170000FBE0F901F90189526E8230F0296A11DE1
:10418000B11DD2CF1F920F920FB60F9211242F9311
:104190003F934F935F936F937F938F939F93EF938F
:1041A000FF9383B1817029B19091A204981709F40B
:1041B0009DC030E0220F232F221F330B922F8093BC
:1041C000A2044091A104241709F490C02093A104F3
:1041D0002091910430919204981719F0319521950E
:1041E00031094091B5045091B60460918F047091EB
:1041F0009004240F351F261737070CF48BC020912D
:10420000910430919204981719F031952195310954
:104210004091B5045091B60460918D0470918E0464
:10422000240F351F621773070CF46FC0409191047F
:1042300050919204981719F0519541955109209188
:10424000B5043091B604240F351F3093B604209383
:10425000B50441E0981340E02091A004421709F40E
:1042600040C02091910430919204981719F0319533
:10427000219531096091B5047091B604E0918F04E5
:10428000F0919004260F371F2E173F070CF44CC0F7
:104290002091910430919204981719F0319521954D
:1042A00031096091B5047091B604E0918D04F091EC
:1042B0008E04260F371FE217F3078CF1209191042B
:1042C00030919204981719F0319521953109809118
:1042D000B5049091B604820F931F9093B604809317
:1042E000B5044093A00481E08093C204FF91EF9154
:1042F0009F918F917F916F915F914F913F912F91FE
:104300000F900FBE0F901F90189520918D04309143
:104310008E049BCF20918F043091900496CF809192
:104320008D0490918E04D9CF80918F049091900448
:10433000D4CF1895CF93DF93CDB7DEB729970FB6BB
:10434000F894DEBF0FBECDBF789484B5826084BD83
:1043500084B5816084BD85B5826085BD85B5816089
:1043600085BD80916E00816080936E001092810007
:1043700080918100826080938100809181008160C2
:104380008093810080918000816080938000809183
:10439000B10084608093B1008091B000816080930F
:1043A000B00080917A00846080937A0080917A00D6
:1043B000826080937A0080917A00816080937A0095
:1043C00080917A00806880937A001092C10060E04A
:1043D0008EE00E94860E60E08FE00E94860E61E013
:1043E00085E00E94860E61E089E00E94860E62E010
:1043F00087E00E94860E62E088E00E94860E62E0FE
:1044000086E00E94860E62E08AE00E94860E8FEFB0
:1044100090E00E94C20E60E085E00E94580E8091FC
:104420007A00876080937A0080917A008860809318
:104430007A00789481E080936B00809368008BBB56
:1044400080912105883209F0CAC08FEF809336052C
:1044500090E080E00E947620182F81E090E00E949A
:104460007620912F8C36974E09F0C9C082E090E0FB
:104470000E947620182F83E090E00E947620912FF2
:10448000909391018093900184E090E00E947620C7
:10449000182F85E090E00E947620912F90938B0159
:1044A00080938A0186E090E00E94762080938501C7
:1044B00087E090E00E9476208093E90188E090E018
:1044C0000E9476208093E80189E090E00E947620A7
:1044D0008093E7018AE090E00E9476208093C604F2
:1044E0008BE090E00E94762091E0811101C090E085
:1044F0009093AB048CE090E00E94762091E08111D3
:1045000001C090E09093C4018DE090E00E9476207D
:1045100091E0811101C090E09093AA048EE090E0B8
:104520000E94762091E0811101C090E09093A9044F
:104530008FE090E00E9476208093C30480E190E0B9
:104540000E947620282E80937201A2E38A2EA1E099
:104550009A2EBBEEAB2EB1E0BB2E11E1E12EF12C79
:10456000312C231409F457C010E000E0C701800F7C
:10457000911F0E947620F501E00FF11F80830F5FED
:104580001F4F0630110591F7670186E0C80ED11C58
:104590009EE0E90EF11C3401C6010E947620082F2E
:1045A00010E0102F0027F301118300832601F2E0B1
:1045B0004F0E511CC60101960E947620082BF30174
:1045C000019311933F0162014E145F0429F7339464
:1045D000F8E08F0E911C26E0A20EB11CC2CF8230F3
:1045E00011F483E033CF813009F430CF803309F008
:1045F0002FCF8FEF809336058093370529CF67EE55
:1046000090E080E00E94431E6CE681E090E00E9412
:10461000431E0E94571E0E944F160E9491159093B0
:10462000A8048093A7040E9439169093C504809330
:10463000C40400919001109191011093BD04009366
:10464000BC048EE00E940B16BC0190E080E00E944A
:10465000FF2B6093A3047093A4048093A50490930C
:10466000A6040E94CD150E94DA1A20E030E040EA4C
:1046700051E46091BE047091BF048091C004909198
:10468000C1040E94E62A6B017C01B80190E080E041
:104690000E94FF2B9B01AC01C701B6010E94522B67
:1046A00087FF04C090E080E00E94C20E10920805CF
:1046B0001092090510920A0510920B05412C512CFD
:1046C000EFE76E2EE3E47E2E40920C0550920D052E
:1046D00060920E0570920F05A090F404B090F5045E
:1046E00080911005F501C080D180E280F38088239D
:1046F00009F4D1C5A3019201C701B6010E94B12CF2
:10470000181634F5F50140825182628273828090DE
:10471000FC049090FD04A090FE04B090FF04C090B3
:104720000C05D0900D05E0900E05F0900F05A70147
:104730009601C501B4010E94B12C1816C4F4C092B0
:10474000FC04D092FD04E092FE04F092FF041FC02E
:1047500020E030E0A901C701B6010E94522B87FF7B
:10476000D6CFF5011082118212821382D0CFC09071
:104770000805D0900905E0900A05F0900B05A70107
:104780009601C501B4010E94522B87FDD8CF81E06C
:104790008093100583B181708093A20489B190E069
:1047A000880F892F881F990B8093A1042091A20460
:1047B0009091A10481E0291380E08093A0049801E6
:1047C0004AE050E060E971E086E990E00E947C16E2
:1047D0000E94710F6093B8047093B9048093BA0477
:1047E0009093BB040E949A160E949A162090B504DA
:1047F0003090B604359427943092BD042092BC04C6
:1048000086E00E942F0E89878111B0C08091B40488
:10481000882309F4ABC00E949A160E94710F4B01C5
:104820005C018092B0049092B104A092B204B09264
:10483000B30486E00E942F0E892B59F40E94710F59
:10484000681979098A099B09643F714081059105BE
:1048500080F30E94710F681979098A099B09643FE6
:1048600071408105910508F4A9C48FEF90E00E9482
:10487000C20E0E949A1610E0412F66E181ED91E090
:104880000E94C217182F893008F05EC0E82FF0E0B0
:10489000E45BFB4D0C94382D94247027BA27FE2737
:1048A0000C28162824283428422820E030E0A901CA
:1048B000C701B6010E94522B87FF69CF1092FC04FA
:1048C0001092FD041092FE041092FF0460CF83301A
:1048D00009F49BC28430C1F580917201883008F0E0
:1048E000FCC291E0980F909372018093C3040E94E0
:1048F000CC1BE091C30428E0E29FF0011124EE5CA0
:10490000FE4F88ED90E09183808384E391E0938370
:10491000828386E891E0958384838EE190E097839B
:10492000868302C00E940917412F6EE083E791E061
:104930000E94C217182F823009F464C240F68823FF
:1049400089F3813009F441C10E94571E81E08093B0
:10495000C2043092BD042092BC0491014AE050E0B0
:1049600060E971E086E990E00E947C169985909359
:10497000B4048091CB04882309F11091E70111233D
:10498000E9F00E94710FC090AC04D090AD04E090AB
:10499000AE04F090AF046C197D098E099F0928EED2
:1049A00033E040E050E00E94B42A211738F0109222
:1049B000CB040E949A1681E08093EA018091C204A0
:1049C0008823E9F18091CC04882349F120E030E08C
:1049D00040EA51E46091BE047091BF048091C0042C
:1049E0009091C1040E94E62A6B017C016091BC0495
:1049F0007091BD0490E080E00E94FF2B9B01AC0110
:104A0000C701B6010E94522B87FF04C090E080E0EE
:104A10000E94C20E0E949A1681E08093EA011092D1
:104A2000C2041092CC041092CD040E94710F6093C6
:104A3000B8047093B9048093BA049093BB040E94A5
:104A4000710F0091B8041091B9042091BA0430910B
:104A5000BB04601B710B820B930B20E63AEE40E027
:104A600050E00E94B42A122F2093B7048091CC0406
:104A700081110BC08091E901882339F0281728F0B3
:104A800081E08093CC040E949A168091CD0481111C
:104A90000BC08091E801882339F0181728F081E0D5
:104AA0008093CD040E949A160E94061F0E94AD18A2
:104AB0000E94191105ED1DE088E2D82E93E5F92E2C
:104AC0002FE0C22E34E1B32E44E3E42E56E0A52EAF
:104AD00065E2962E76E1872E86E79DE00E948C0D9A
:104AE00010932C0500932B0540E552E060E080E038
:104AF0000E948612D0924D0510924E056091D0040E
:104B00007091D1048091D2049091D30440E00E942E
:104B1000E71CF0924D0510924E058091CE049091C5
:104B2000CF04853F914008F45FC388EA91E00E947A
:104B3000AC1B8091C604882309F488C36091C40427
:104B40007091C50490E080E00E94FF2B20E030E0EF
:104B50004AE754E40E94572B2B013C0110924D056B
:104B6000E0924E058091C3048A9DC00111248551B5
:104B70009E4F0E94961CF0924D05E0924E0541E03A
:104B8000C301B2010E94E71C82E891E00E94AC1BC5
:104B900080EA9AE00E948C0D10932C0500932B055F
:104BA00090924D0580924E056091CE047091CF0495
:104BB0008EE791E0653FF1E07F0708F05EC390E08B
:104BC00080E04AE00E94A31C5AC3CE0101967C01FA
:104BD000812C912C54018394CC24C39450E1D52E84
:104BE000E091C30494E0E99FF0011124C40101970E
:104BF000E80FF91FEE0FFF1FEE5CFE4F20813181A1
:104C00003093BD042093BC0441E050E064EF71E0B8
:104C100084E690E00E947C16C092EA0186E00E9441
:104C20002F0E01E0892B09F000E00E94061F0E9470
:104C3000AD180E94191186E79DE00E948C0DE5EDEC
:104C4000FDE0F0932C05E0932B0587E491E00E94B2
:104C5000AF1210924D05D0924E0580E491E00E9473
:104C6000AC1B4AE0C501B4010E94A31C85E492E09C
:104C70000E94961C80911B0210924D05882309F416
:104C8000A1C0F0E2F0934E0583E391E00E94AC1BDB
:104C900010924D0520E320934E058CE291E00E9496
:104CA000AC1B8091B5049091B604959587952C0125
:104CB000092E000C6608770897FF80C08DE20E94DD
:104CC000C71B66277727CB016419750986099709E1
:104CD0004AE00E94A31C0E94D10F8111ACCF002397
:104CE00061F086E00E942F0E892B39F06AE070E0B7
:104CF00080E090E00E943F0F00E086E00E942F0ECF
:104D0000892B09F092CF011190CF8091B504909139
:104D1000B60495958795F701819391937F010E9441
:104D20009A166AE070E080E090E00E943F0FFFEF8B
:104D30008F1A9F0AAF0ABF0A24E082169104A104C9
:104D4000B10409F04DCF8FEF90E00E94C20E83EDC9
:104D50009EE00197F1F70E94CD150E94D02B2B0108
:104D600078876F8389809A80CB80DC80C4010A9623
:104D70008C159D0508F0D8CDAD80BE80C6010A9681
:104D80008A159B0508F0D0CD40E066E086E191E011
:104D90000E94C217882309F4C7CDE091C30488E0BC
:104DA000E89FF0011124EE5CFE4F91828082D38255
:104DB000C282B582A48257824682B6CD4AE0C30140
:104DC000B20187CF80E280934E0585E291E00E9498
:104DD000AC1B6091A3047091A4048091A5049091F0
:104DE000A6040E94D02B90E080E04AE00E94A31C21
:104DF00010924D0590E390934E0586E191E00E945C
:104E0000AC1B69CF0E94CC1B8FCD80917201813089
:104E100029F48CE191E00E94B81686CD40E066E06E
:104E200084E291E00E94C217882309F47DCD0091AD
:104E3000C304E0907201EE2DE150FF0BBF01B6E01C
:104E4000DB2E0E171F0639F401500093C304EA94B9
:104E5000E092720169CD802F90E086179707BCF72A
:104E60000D9DD001112450E040E09C012F5F3F4F89
:104E7000FA01EA0FFB1FE551FE4FC680C0824F5F6B
:104E80005F4F46305105A1F7E3E0220F331FEA954B
:104E9000E1F7F901EE5CFE4F20813181A3E0880F3C
:104EA000991FAA95E1F7DC01AE5CBE4F11963C93C9
:104EB0002E938281938113969C938E931297848173
:104EC000958115969C938E9314978681978117965A
:104ED0009C938E9316970F5FBECF8AE291E09BCF93
:104EE00000E0402F6AE082E991E00E94C217082F9B
:104EF000813059F1A8F0823009F0BECC20918501B3
:104F000030E04AE050E064E670E08AE090E00E9421
:104F10007C1681E891E00E94BF1D80938501E1CF5E
:104F200020919001309191014AE050E060E971E0F8
:104F300086E990E00E947C168CE891E00E94BF1DFB
:104F40009093910180939001CCCF20918A01309170
:104F50008B014AE050E068EC70E084E190E00E9450
:104F60007C1686E891E00E94BF1D90938B01809390
:104F70008A01B7CF00E0402F6AE088EA91E00E9402
:104F8000C217082F813041F1A8F0823009F074CCAB
:104F90002091E70130E04AE050E064EB70E090E0FF
:104FA00080E00E947C168CE991E00E94BF1D8093F6
:104FB000E701E1CF2091E90130E041E050E06EE10E
:104FC00070E090E080E00E947C1684EA91E00E940C
:104FD000BF1D8093E901CFCF2091E80130E045E08B
:104FE00050E06CE370E090E080E00E947C1680EA84
:104FF00091E00E94BF1D8093E801BDCF4091AB04BA
:1050000066E08BEC91E00E94C21791E0811101C033
:1050100090E09093AB0430CC4091C60466E085EC00
:1050200091E00E94C2178093C60426CC4091C4012F
:1050300066E08EEB91E00E94C21791E0811101C001
:1050400090E09093C40118CC4091AA0466E088EBEC
:1050500091E00E94C21791E0811101C090E090930D
:10506000AA040E944F1608CC4091A90466E082EB86
:1050700091E00E94C21791E0811101C090E09093ED
:10508000A904FACB86E00E942F0E01E0892B09F0DB
:1050900000E00E9491159093A8048093A704BC019E
:1050A00090E080E00E94FF2B20E030E04AE754E4EB
:1050B0000E94572B6B017C010E9439169093C50406
:1050C0008093C404BC0190E080E00E94FF2B20E0AC
:1050D00030E04AE754E40E94572B4B015C010E94E8
:1050E000CD152B013C010E94191186E79DE00E941D
:1050F0008C0DE5EDFDE0F0932C05E0932B0510926F
:105100004D0510924E058FE691E00E94AC1B8BE49A
:1051100092E00E94961C10924D05F0E1F0934E052E
:1051200089E691E00E94AC1B41E0C301B2010E94FC
:10513000E71C86E691E00E94AC1B10924D0520E230
:1051400020934E0580E691E00E94AC1B41E0C50132
:10515000B4010E94E71C8DE591E00E94AC1B109207
:105160004D0580E380934E0586E591E00E94AC1BDF
:1051700041E0C701B6010E94E71C83E591E00E946F
:10518000AC1B0E94D10F8111B0CF002361F086E0EB
:105190000E942F0E892B39F06AE070E080E090E0E9
:1051A0000E943F0F00E086E00E942F0E892B09F03D
:1051B00070CF01116ECF0E949A165ECB8091CB0406
:1051C00091E089278093CB04882351F00E94710FCE
:1051D0006093AC047093AD048093AE049093AF04DD
:1051E00081E08093C204C2CB8091CD04882319F062
:1051F00082EA91E09CCC8091CC04882319F08CE960
:1052000091E095CC8091CB04882319F086E991E058
:105210008ECC80911B02882319F080E991E087CC25
:1052200020E030E044E353E46091C7047091C80487
:105230008091C9049091CA040E94522B87FF03C039
:105240008AE891E074CC84E891E071CC82EC91E042
:105250000E948C0D10932C0500932B05C0924D05D8
:10526000B0924E056091CE047091CF04653F21E06D
:10527000720708F4A4CC8AE791E00E94AC1B0E945C
:10528000D10F811129CC80E090E0892B09F4AECABE
:105290000E940000ABCAC092FC04D092FD04E092D0
:1052A000FE04F092FF04E091F204F091F304808197
:1052B0009181A281B3818093000590930105A09311
:1052C0000205B093030520E030E04FE753E4C70147
:1052D000B6010E94B12C18160CF0E7CA4092FC04EB
:1052E0005092FD046092FE047092FF0450CA0F9326
:1052F0001F93CF9387EC94E09093F5048093F4048C
:1053000083E994E09093F3048093F20480ED94E0B9
:105310009093F7048093F6041092100510920805FC
:105320001092090510920A0510920B0580E090E09A
:10533000AFE7B3E480930C0590930D05A0930E05A1
:10534000B0930F0584E690E0A0E0B0E08093040500
:1053500090930505A0930605B093070581E090E0C2
:105360009093EF048093EE049093F1048093F00403
:10537000C1E0C093110580E090E0A0E3B1E4809328
:10538000D6049093D704A093D804B093D90480E0B6
:1053900090E0A0E0BFE38093DA049093DB04A09355
:1053A000DC04B093DD0480E090E0A0E8BFE38093EC
:1053B000DE049093DF04A093E004B093E10480E066
:1053C00090E0A0E3B1EC8093E2049093E304A09317
:1053D000E404B093E5048DEC9CECACE4BDEB80936D
:1053E000E6049093E704A093E804B093E90480E016
:1053F00090E0A0E2B1EC8093EA049093EB04A093D8
:10540000EC04B093ED040E94710F0091040510911B
:1054100005052091060530910705601B710B820B75
:10542000930B6093F8047093F9048093FA049093BB
:10543000FB04109215051092140580E292E09093FF
:1054400013058093120510924D0510924E0510928F
:105450004F0510921B0510921A0510921D0510920F
:105460001C0510921F05C0931E0582E28093200543
:105470001092250510922405E9E3F5E087E495E014
:105480002FEF21938E179F07E1F781E08093360578
:105490002AE83DE030932C0520932B0580932D05C1
:1054A00010922E0510922F0580E480933005109203
:1054B00031058DE79FE0909348058093470580E193
:1054C00091E0909319058093180582E1809344053B
:1054D0000E94ED1080E292E09093130580931205F4
:1054E000CF911F910F910895F999FECF92BD81BD83
:1054F000F89A992780B50895262FF999FECF1FBAFB
:1055000092BD81BD20BD0FB6F894FA9AF99A0FBEEC
:1055100001960895052E97FB1EF400940E94A12A7F
:1055200057FD07D00E94B42A07FC03D04EF40C9418
:10553000A12A50954095309521953F4F4F4F5F4F91
:10554000089590958095709561957F4F8F4F9F4FEF
:1055500008950E94D62AA59F900DB49F900DA49FF8
:10556000800D911D11240895A1E21A2EAA1BBB1BC8
:10557000FD010DC0AA1FBB1FEE1FFF1FA217B3071F
:10558000E407F50720F0A21BB30BE40BF50B661F35
:10559000771F881F991F1A9469F7609570958095F9
:1055A00090959B01AC01BD01CF010895A29FB00170
:1055B000B39FC001A39F700D811D1124911DB29F47
:1055C000700D811D1124911D08955058BB27AA27E5
:1055D0000E94FD2A0C94772C0E94692C38F00E94BE
:1055E000702C20F039F49F3F19F426F40C94662CAB
:1055F0000EF4E095E7FB0C94602CE92F0E94882CB8
:1056000058F3BA17620773078407950720F079F4F7
:10561000A6F50C94AA2C0EF4E0950B2EBA2FA02D13
:105620000B01B90190010C01CA01A0011124FF274F
:10563000591B99F0593F50F4503E68F11A16F0404A
:10564000A22F232F342F4427585FF3CF4695379549
:105650002795A795F0405395C9F77EF41F16BA0B0E
:10566000620B730B840BBAF09150A1F0FF0FBB1FBC
:10567000661F771F881FC2F70EC0BA0F621F731F05
:10568000841F48F4879577956795B795F7959E3F62
:1056900008F0B0CF9395880F08F09927EE0F9795F3
:1056A000879508950E943C2C08F481E008950E949B
:1056B0006B2B0C94772C0E94702C58F00E94692C54
:1056C00040F029F45F3F29F00C94602C51110C94A8
:1056D000AB2C0C94662C0E94882C68F39923B1F3B0
:1056E000552391F3951B550BBB27AA276217730708
:1056F000840738F09F5F5F4F220F331F441FAA1F9C
:10570000A9F335D00E2E3AF0E0E832D09150504057
:10571000E695001CCAF72BD0FE2F29D0660F771F05
:10572000881FBB1F261737074807AB07B0E809F0EB
:10573000BB0B802DBF01FF2793585F4F3AF09E3F70
:10574000510578F00C94602C0C94AB2C5F3FE4F383
:10575000983ED4F3869577956795B795F7959F5FB3
:10576000C9F7880F911D9695879597F90895E1E0FF
:10577000660F771F881FBB1F621773078407BA075E
:1057800020F0621B730B840BBA0BEE1F88F7E095B9
:1057900008950E94D02B6894B1110C94AB2C0895FD
:1057A0000E94902C88F09F5798F0B92F9927B751F5
:1057B000B0F0E1F0660F771F881F991F1AF0BA95B5
:1057C000C9F714C0B13091F00E94AA2CB1E008953D
:1057D0000C94AA2C672F782F8827B85F39F0B93F2F
:1057E000CCF3869577956795B395D9F73EF4909568
:1057F0008095709561957F4F8F4F9F4F0895E894E6
:1058000009C097FB3EF490958095709561957F4F08
:105810008F4F9F4F9923A9F0F92F96E9BB279395B6
:10582000F695879577956795B795F111F8CFFAF4C6
:10583000BB0F11F460FF1BC06F5F7F4F8F4F9F4FF7
:1058400016C0882311F096E911C0772321F09EE855
:10585000872F762F05C0662371F096E8862F70E0BB
:1058600060E02AF09A95660F771F881FDAF7880F95
:105870009695879597F90895990F0008550FAA0BEB
:10588000E0E8FEEF16161706E807F907C0F0121653
:105890001306E407F50798F0621B730B840B950B56
:1058A00039F40A2661F0232B242B252B21F40895AB
:1058B0000A2609F4A140A6958FEF811D811D089548
:1058C00097F99F6780E870E060E008959FEF80ECB3
:1058D000089500240A941616170618060906089556
:1058E00000240A9412161306140605060895092EBC
:1058F0000394000C11F4882352F0BB0F40F4BF2B2B
:1059000011F460FF04C06F5F7F4F8F4F9F4F08956A
:1059100057FD9058440F551F59F05F3F71F0479560
:10592000880F97FB991F61F09F3F79F08795089545
:10593000121613061406551FF2CF4695F1DF08C064
:10594000161617061806991FF1CF86957105610581
:1059500008940895E894BB2766277727CB0197F929
:1059600008950E943C2C08F48FEF08950E94C92CE2
:105970000C94772C0E94692C38F00E94702C20F037
:10598000952311F00C94602C0C94662C11240C942B
:10599000AB2C0E94882C70F3959FC1F3950F50E0BB
:1059A000551F629FF001729FBB27F00DB11D639FD1
:1059B000AA27F00DB11DAA1F649F6627B00DA11D77
:1059C000661F829F2227B00DA11D621F739FB00D1D
:1059D000A11D621F839FA00D611D221F749F33278D
:1059E000A00D611D231F849F600D211D822F762F26
:1059F0006A2F11249F5750409AF0F1F088234AF003
:105A0000EE0FFF1FBB1F661F771F881F915050406E
:105A1000A9F79E3F510580F00C94602C0C94AB2CA0
:105A20005F3FE4F3983ED4F3869577956795B795F5
:105A3000F795E7959F5FC1F7FE2B880F911D96950F
:105A4000879597F908950E943C2C880B990B08952F
:105A5000DB018F939F930E94A92ABF91AF91A29FD0
:105A6000800D911DA39F900DB29F900D112408955C
:105A7000EE0FFF1F0590F491E02D0994F894FFCFED
:105A80000840000000800C0401FF7E0F00000000B1
:105A90006614000188135502660269026D027502E0
:105AA00080028C029602660269026D02A502B102B2
:105AB000C002D800340186011E0000000000000072
:105AC00000000000000000000000000000000000D6
:105AD00000000000000000000000000000000000C6
